{
  "contractName": "MambaNFT",
  "abi": [
    {
      "inputs": [],
      "stateMutability": "nonpayable",
      "type": "constructor"
    },
    {
      "anonymous": false,
      "inputs": [
        {
          "indexed": true,
          "internalType": "address",
          "name": "owner",
          "type": "address"
        },
        {
          "indexed": true,
          "internalType": "address",
          "name": "approved",
          "type": "address"
        },
        {
          "indexed": true,
          "internalType": "uint256",
          "name": "tokenId",
          "type": "uint256"
        }
      ],
      "name": "Approval",
      "type": "event"
    },
    {
      "anonymous": false,
      "inputs": [
        {
          "indexed": true,
          "internalType": "address",
          "name": "owner",
          "type": "address"
        },
        {
          "indexed": true,
          "internalType": "address",
          "name": "operator",
          "type": "address"
        },
        {
          "indexed": false,
          "internalType": "bool",
          "name": "approved",
          "type": "bool"
        }
      ],
      "name": "ApprovalForAll",
      "type": "event"
    },
    {
      "anonymous": false,
      "inputs": [
        {
          "indexed": true,
          "internalType": "address",
          "name": "previousOwner",
          "type": "address"
        },
        {
          "indexed": true,
          "internalType": "address",
          "name": "newOwner",
          "type": "address"
        }
      ],
      "name": "OwnershipTransferred",
      "type": "event"
    },
    {
      "anonymous": false,
      "inputs": [
        {
          "indexed": true,
          "internalType": "address",
          "name": "from",
          "type": "address"
        },
        {
          "indexed": true,
          "internalType": "address",
          "name": "to",
          "type": "address"
        },
        {
          "indexed": true,
          "internalType": "uint256",
          "name": "tokenId",
          "type": "uint256"
        }
      ],
      "name": "Transfer",
      "type": "event"
    },
    {
      "inputs": [
        {
          "internalType": "address",
          "name": "to",
          "type": "address"
        },
        {
          "internalType": "uint256",
          "name": "tokenId",
          "type": "uint256"
        }
      ],
      "name": "approve",
      "outputs": [],
      "stateMutability": "nonpayable",
      "type": "function"
    },
    {
      "inputs": [
        {
          "internalType": "address",
          "name": "owner",
          "type": "address"
        }
      ],
      "name": "balanceOf",
      "outputs": [
        {
          "internalType": "uint256",
          "name": "",
          "type": "uint256"
        }
      ],
      "stateMutability": "view",
      "type": "function",
      "constant": true
    },
    {
      "inputs": [
        {
          "internalType": "uint256",
          "name": "tokenId",
          "type": "uint256"
        }
      ],
      "name": "getApproved",
      "outputs": [
        {
          "internalType": "address",
          "name": "",
          "type": "address"
        }
      ],
      "stateMutability": "view",
      "type": "function",
      "constant": true
    },
    {
      "inputs": [
        {
          "internalType": "address",
          "name": "owner",
          "type": "address"
        },
        {
          "internalType": "address",
          "name": "operator",
          "type": "address"
        }
      ],
      "name": "isApprovedForAll",
      "outputs": [
        {
          "internalType": "bool",
          "name": "",
          "type": "bool"
        }
      ],
      "stateMutability": "view",
      "type": "function",
      "constant": true
    },
    {
      "inputs": [],
      "name": "name",
      "outputs": [
        {
          "internalType": "string",
          "name": "",
          "type": "string"
        }
      ],
      "stateMutability": "view",
      "type": "function",
      "constant": true
    },
    {
      "inputs": [],
      "name": "owner",
      "outputs": [
        {
          "internalType": "address",
          "name": "",
          "type": "address"
        }
      ],
      "stateMutability": "view",
      "type": "function",
      "constant": true
    },
    {
      "inputs": [
        {
          "internalType": "uint256",
          "name": "tokenId",
          "type": "uint256"
        }
      ],
      "name": "ownerOf",
      "outputs": [
        {
          "internalType": "address",
          "name": "",
          "type": "address"
        }
      ],
      "stateMutability": "view",
      "type": "function",
      "constant": true
    },
    {
      "inputs": [
        {
          "internalType": "address",
          "name": "",
          "type": "address"
        },
        {
          "internalType": "uint256",
          "name": "",
          "type": "uint256"
        }
      ],
      "name": "ownershipRecords",
      "outputs": [
        {
          "internalType": "uint256",
          "name": "timestamp",
          "type": "uint256"
        },
        {
          "internalType": "uint256",
          "name": "id",
          "type": "uint256"
        },
        {
          "internalType": "string",
          "name": "tokenURI",
          "type": "string"
        }
      ],
      "stateMutability": "view",
      "type": "function",
      "constant": true
    },
    {
      "inputs": [],
      "name": "renounceOwnership",
      "outputs": [],
      "stateMutability": "nonpayable",
      "type": "function"
    },
    {
      "inputs": [
        {
          "internalType": "address",
          "name": "from",
          "type": "address"
        },
        {
          "internalType": "address",
          "name": "to",
          "type": "address"
        },
        {
          "internalType": "uint256",
          "name": "tokenId",
          "type": "uint256"
        }
      ],
      "name": "safeTransferFrom",
      "outputs": [],
      "stateMutability": "nonpayable",
      "type": "function"
    },
    {
      "inputs": [
        {
          "internalType": "address",
          "name": "from",
          "type": "address"
        },
        {
          "internalType": "address",
          "name": "to",
          "type": "address"
        },
        {
          "internalType": "uint256",
          "name": "tokenId",
          "type": "uint256"
        },
        {
          "internalType": "bytes",
          "name": "_data",
          "type": "bytes"
        }
      ],
      "name": "safeTransferFrom",
      "outputs": [],
      "stateMutability": "nonpayable",
      "type": "function"
    },
    {
      "inputs": [
        {
          "internalType": "address",
          "name": "operator",
          "type": "address"
        },
        {
          "internalType": "bool",
          "name": "approved",
          "type": "bool"
        }
      ],
      "name": "setApprovalForAll",
      "outputs": [],
      "stateMutability": "nonpayable",
      "type": "function"
    },
    {
      "inputs": [
        {
          "internalType": "bytes4",
          "name": "interfaceId",
          "type": "bytes4"
        }
      ],
      "name": "supportsInterface",
      "outputs": [
        {
          "internalType": "bool",
          "name": "",
          "type": "bool"
        }
      ],
      "stateMutability": "view",
      "type": "function",
      "constant": true
    },
    {
      "inputs": [],
      "name": "symbol",
      "outputs": [
        {
          "internalType": "string",
          "name": "",
          "type": "string"
        }
      ],
      "stateMutability": "view",
      "type": "function",
      "constant": true
    },
    {
      "inputs": [
        {
          "internalType": "uint256",
          "name": "tokenId",
          "type": "uint256"
        }
      ],
      "name": "tokenURI",
      "outputs": [
        {
          "internalType": "string",
          "name": "",
          "type": "string"
        }
      ],
      "stateMutability": "view",
      "type": "function",
      "constant": true
    },
    {
      "inputs": [
        {
          "internalType": "address",
          "name": "from",
          "type": "address"
        },
        {
          "internalType": "address",
          "name": "to",
          "type": "address"
        },
        {
          "internalType": "uint256",
          "name": "tokenId",
          "type": "uint256"
        }
      ],
      "name": "transferFrom",
      "outputs": [],
      "stateMutability": "nonpayable",
      "type": "function"
    },
    {
      "inputs": [
        {
          "internalType": "address",
          "name": "newOwner",
          "type": "address"
        }
      ],
      "name": "transferOwnership",
      "outputs": [],
      "stateMutability": "nonpayable",
      "type": "function"
    },
    {
      "inputs": [],
      "name": "uid",
      "outputs": [
        {
          "internalType": "uint256",
          "name": "",
          "type": "uint256"
        }
      ],
      "stateMutability": "view",
      "type": "function",
      "constant": true
    },
    {
      "inputs": [],
      "name": "mintToken",
      "outputs": [
        {
          "internalType": "uint256",
          "name": "",
          "type": "uint256"
        }
      ],
      "stateMutability": "nonpayable",
      "type": "function"
    },
    {
      "inputs": [
        {
          "internalType": "uint256",
          "name": "_id",
          "type": "uint256"
        }
      ],
      "name": "burnToken",
      "outputs": [],
      "stateMutability": "nonpayable",
      "type": "function"
    }
  ],
  "bytecode": "0x60806040523480156200001157600080fd5b506040518060400160405280600881526020017f4d616d62614e46540000000000000000000000000000000000000000000000008152506040518060400160405280600581526020017f4d414d42410000000000000000000000000000000000000000000000000000008152506200009e62000092620000e060201b60201c565b620000e860201b60201c565b8160019080519060200190620000b6929190620001ac565b508060029080519060200190620000cf929190620001ac565b5050506001600781905550620002c1565b600033905090565b60008060009054906101000a900473ffffffffffffffffffffffffffffffffffffffff169050816000806101000a81548173ffffffffffffffffffffffffffffffffffffffff021916908373ffffffffffffffffffffffffffffffffffffffff1602179055508173ffffffffffffffffffffffffffffffffffffffff168173ffffffffffffffffffffffffffffffffffffffff167f8be0079c531659141344cd1fd0a4f28419497f9722a3daafe3b4186f6b6457e060405160405180910390a35050565b828054620001ba906200025c565b90600052602060002090601f016020900481019282620001de57600085556200022a565b82601f10620001f957805160ff19168380011785556200022a565b828001600101855582156200022a579182015b82811115620002295782518255916020019190600101906200020c565b5b5090506200023991906200023d565b5090565b5b80821115620002585760008160009055506001016200023e565b5090565b600060028204905060018216806200027557607f821691505b602082108114156200028c576200028b62000292565b5b50919050565b7f4e487b7100000000000000000000000000000000000000000000000000000000600052602260045260246000fd5b61321f80620002d16000396000f3fe608060405234801561001057600080fd5b506004361061012c5760003560e01c8063715018a6116100ad578063b88d4fde11610071578063b88d4fde14610331578063c87b56dd1461034d578063e985e9c51461037d578063f2fde38b146103ad578063f514ce36146103c95761012c565b8063715018a6146102b35780637b47ec1a146102bd5780638da5cb5b146102d957806395d89b41146102f7578063a22cb465146103155761012c565b806323b872dd116100f457806323b872dd146101e957806331140f921461020557806342842e0e146102375780636352211e1461025357806370a08231146102835761012c565b806301ffc9a71461013157806306fdde0314610161578063081812fc1461017f578063095ea7b3146101af5780632004ffd9146101cb575b600080fd5b61014b60048036038101906101469190612279565b6103e7565b60405161015891906126a2565b60405180910390f35b6101696104c9565b60405161017691906126bd565b60405180910390f35b610199600480360381019061019491906122cb565b61055b565b6040516101a6919061263b565b60405180910390f35b6101c960048036038101906101c4919061223d565b6105e0565b005b6101d36106f8565b6040516101e091906128ff565b60405180910390f35b61020360048036038101906101fe9190612137565b61081e565b005b61021f600480360381019061021a919061223d565b61087e565b60405161022e9392919061291a565b60405180910390f35b610251600480360381019061024c9190612137565b61094d565b005b61026d600480360381019061026891906122cb565b61096d565b60405161027a919061263b565b60405180910390f35b61029d600480360381019061029891906120d2565b610a1f565b6040516102aa91906128ff565b60405180910390f35b6102bb610ad7565b005b6102d760048036038101906102d291906122cb565b610b5f565b005b6102e1610bea565b6040516102ee919061263b565b60405180910390f35b6102ff610c13565b60405161030c91906126bd565b60405180910390f35b61032f600480360381019061032a9190612201565b610ca5565b005b61034b60048036038101906103469190612186565b610e26565b005b610367600480360381019061036291906122cb565b610e88565b60405161037491906126bd565b60405180910390f35b610397600480360381019061039291906120fb565b610f2f565b6040516103a491906126a2565b60405180910390f35b6103c760048036038101906103c291906120d2565b610fc3565b005b6103d16110bb565b6040516103de91906128ff565b60405180910390f35b60007f80ac58cd000000000000000000000000000000000000000000000000000000007bffffffffffffffffffffffffffffffffffffffffffffffffffffffff1916827bffffffffffffffffffffffffffffffffffffffffffffffffffffffff191614806104b257507f5b5e139f000000000000000000000000000000000000000000000000000000007bffffffffffffffffffffffffffffffffffffffffffffffffffffffff1916827bffffffffffffffffffffffffffffffffffffffffffffffffffffffff1916145b806104c257506104c1826110c1565b5b9050919050565b6060600180546104d890612b62565b80601f016020809104026020016040519081016040528092919081815260200182805461050490612b62565b80156105515780601f1061052657610100808354040283529160200191610551565b820191906000526020600020905b81548152906001019060200180831161053457829003601f168201915b5050505050905090565b60006105668261112b565b6105a5576040517f08c379a000000000000000000000000000000000000000000000000000000000815260040161059c9061283f565b60405180910390fd5b6005600083815260200190815260200160002060009054906101000a900473ffffffffffffffffffffffffffffffffffffffff169050919050565b60006105eb8261096d565b90508073ffffffffffffffffffffffffffffffffffffffff168373ffffffffffffffffffffffffffffffffffffffff16141561065c576040517f08c379a0000000000000000000000000000000000000000000000000000000008152600401610653906128bf565b60405180910390fd5b8073ffffffffffffffffffffffffffffffffffffffff1661067b611197565b73ffffffffffffffffffffffffffffffffffffffff1614806106aa57506106a9816106a4611197565b610f2f565b5b6106e9576040517f08c379a00000000000000000000000000000000000000000000000000000000081526004016106e0906127bf565b60405180910390fd5b6106f3838361119f565b505050565b600080600754905061070c33600754611258565b6000604051806060016040528042815260200160075481526020016040518060400160405280600881526020017f6d616d62615552490000000000000000000000000000000000000000000000008152508152509050600860003373ffffffffffffffffffffffffffffffffffffffff1673ffffffffffffffffffffffffffffffffffffffff168152602001908152602001600020819080600181540180825580915050600190039060005260206000209060030201600090919091909150600082015181600001556020820151816001015560408201518160020190805190602001906107fb929190611f1e565b5050506007600081548092919061081190612bc5565b9190505550819250505090565b61082f610829611197565b82611276565b61086e576040517f08c379a0000000000000000000000000000000000000000000000000000000008152600401610865906128df565b60405180910390fd5b610879838383611354565b505050565b6008602052816000526040600020818154811061089a57600080fd5b9060005260206000209060030201600091509150508060000154908060010154908060020180546108ca90612b62565b80601f01602080910402602001604051908101604052809291908181526020018280546108f690612b62565b80156109435780601f1061091857610100808354040283529160200191610943565b820191906000526020600020905b81548152906001019060200180831161092657829003601f168201915b5050505050905083565b61096883838360405180602001604052806000815250610e26565b505050565b6000806003600084815260200190815260200160002060009054906101000a900473ffffffffffffffffffffffffffffffffffffffff169050600073ffffffffffffffffffffffffffffffffffffffff168173ffffffffffffffffffffffffffffffffffffffff161415610a16576040517f08c379a0000000000000000000000000000000000000000000000000000000008152600401610a0d906127ff565b60405180910390fd5b80915050919050565b60008073ffffffffffffffffffffffffffffffffffffffff168273ffffffffffffffffffffffffffffffffffffffff161415610a90576040517f08c379a0000000000000000000000000000000000000000000000000000000008152600401610a87906127df565b60405180910390fd5b600460008373ffffffffffffffffffffffffffffffffffffffff1673ffffffffffffffffffffffffffffffffffffffff168152602001908152602001600020549050919050565b610adf611197565b73ffffffffffffffffffffffffffffffffffffffff16610afd610bea565b73ffffffffffffffffffffffffffffffffffffffff1614610b53576040517f08c379a0000000000000000000000000000000000000000000000000000000008152600401610b4a9061285f565b60405180910390fd5b610b5d60006115b0565b565b610b688161096d565b73ffffffffffffffffffffffffffffffffffffffff163373ffffffffffffffffffffffffffffffffffffffff1614610bd5576040517f08c379a0000000000000000000000000000000000000000000000000000000008152600401610bcc9061277f565b60405180910390fd5b610bde81611674565b610be781611785565b50565b60008060009054906101000a900473ffffffffffffffffffffffffffffffffffffffff16905090565b606060028054610c2290612b62565b80601f0160208091040260200160405190810160405280929190818152602001828054610c4e90612b62565b8015610c9b5780601f10610c7057610100808354040283529160200191610c9b565b820191906000526020600020905b815481529060010190602001808311610c7e57829003601f168201915b5050505050905090565b610cad611197565b73ffffffffffffffffffffffffffffffffffffffff168273ffffffffffffffffffffffffffffffffffffffff161415610d1b576040517f08c379a0000000000000000000000000000000000000000000000000000000008152600401610d129061275f565b60405180910390fd5b8060066000610d28611197565b73ffffffffffffffffffffffffffffffffffffffff1673ffffffffffffffffffffffffffffffffffffffff16815260200190815260200160002060008473ffffffffffffffffffffffffffffffffffffffff1673ffffffffffffffffffffffffffffffffffffffff16815260200190815260200160002060006101000a81548160ff0219169083151502179055508173ffffffffffffffffffffffffffffffffffffffff16610dd5611197565b73ffffffffffffffffffffffffffffffffffffffff167f17307eab39ab6107e8899845ad3d59bd9653f200f220920489ca2b5937696c3183604051610e1a91906126a2565b60405180910390a35050565b610e37610e31611197565b83611276565b610e76576040517f08c379a0000000000000000000000000000000000000000000000000000000008152600401610e6d906128df565b60405180910390fd5b610e8284848484611926565b50505050565b6060610e938261112b565b610ed2576040517f08c379a0000000000000000000000000000000000000000000000000000000008152600401610ec99061289f565b60405180910390fd5b6000610edc611982565b90506000815111610efc5760405180602001604052806000815250610f27565b80610f0684611999565b604051602001610f17929190612617565b6040516020818303038152906040525b915050919050565b6000600660008473ffffffffffffffffffffffffffffffffffffffff1673ffffffffffffffffffffffffffffffffffffffff16815260200190815260200160002060008373ffffffffffffffffffffffffffffffffffffffff1673ffffffffffffffffffffffffffffffffffffffff16815260200190815260200160002060009054906101000a900460ff16905092915050565b610fcb611197565b73ffffffffffffffffffffffffffffffffffffffff16610fe9610bea565b73ffffffffffffffffffffffffffffffffffffffff161461103f576040517f08c379a00000000000000000000000000000000000000000000000000000000081526004016110369061285f565b60405180910390fd5b600073ffffffffffffffffffffffffffffffffffffffff168173ffffffffffffffffffffffffffffffffffffffff1614156110af576040517f08c379a00000000000000000000000000000000000000000000000000000000081526004016110a6906126ff565b60405180910390fd5b6110b8816115b0565b50565b60075481565b60007f01ffc9a7000000000000000000000000000000000000000000000000000000007bffffffffffffffffffffffffffffffffffffffffffffffffffffffff1916827bffffffffffffffffffffffffffffffffffffffffffffffffffffffff1916149050919050565b60008073ffffffffffffffffffffffffffffffffffffffff166003600084815260200190815260200160002060009054906101000a900473ffffffffffffffffffffffffffffffffffffffff1673ffffffffffffffffffffffffffffffffffffffff1614159050919050565b600033905090565b816005600083815260200190815260200160002060006101000a81548173ffffffffffffffffffffffffffffffffffffffff021916908373ffffffffffffffffffffffffffffffffffffffff160217905550808273ffffffffffffffffffffffffffffffffffffffff166112128361096d565b73ffffffffffffffffffffffffffffffffffffffff167f8c5be1e5ebec7d5bd14f71427d1e84f3dd0314c0f7b2291e5b200ac8c7c3b92560405160405180910390a45050565b611272828260405180602001604052806000815250611b46565b5050565b60006112818261112b565b6112c0576040517f08c379a00000000000000000000000000000000000000000000000000000000081526004016112b79061279f565b60405180910390fd5b60006112cb8361096d565b90508073ffffffffffffffffffffffffffffffffffffffff168473ffffffffffffffffffffffffffffffffffffffff16148061133a57508373ffffffffffffffffffffffffffffffffffffffff166113228461055b565b73ffffffffffffffffffffffffffffffffffffffff16145b8061134b575061134a8185610f2f565b5b91505092915050565b8273ffffffffffffffffffffffffffffffffffffffff166113748261096d565b73ffffffffffffffffffffffffffffffffffffffff16146113ca576040517f08c379a00000000000000000000000000000000000000000000000000000000081526004016113c19061287f565b60405180910390fd5b600073ffffffffffffffffffffffffffffffffffffffff168273ffffffffffffffffffffffffffffffffffffffff16141561143a576040517f08c379a00000000000000000000000000000000000000000000000000000000081526004016114319061273f565b60405180910390fd5b611445838383611ba1565b61145060008261119f565b6001600460008573ffffffffffffffffffffffffffffffffffffffff1673ffffffffffffffffffffffffffffffffffffffff16815260200190815260200160002060008282546114a09190612a78565b925050819055506001600460008473ffffffffffffffffffffffffffffffffffffffff1673ffffffffffffffffffffffffffffffffffffffff16815260200190815260200160002060008282546114f791906129f1565b92505081905550816003600083815260200190815260200160002060006101000a81548173ffffffffffffffffffffffffffffffffffffffff021916908373ffffffffffffffffffffffffffffffffffffffff160217905550808273ffffffffffffffffffffffffffffffffffffffff168473ffffffffffffffffffffffffffffffffffffffff167fddf252ad1be2c89b69c2b068fc378daa952ba7f163c4a11628f55a4df523b3ef60405160405180910390a4505050565b60008060009054906101000a900473ffffffffffffffffffffffffffffffffffffffff169050816000806101000a81548173ffffffffffffffffffffffffffffffffffffffff021916908373ffffffffffffffffffffffffffffffffffffffff1602179055508173ffffffffffffffffffffffffffffffffffffffff168173ffffffffffffffffffffffffffffffffffffffff167f8be0079c531659141344cd1fd0a4f28419497f9722a3daafe3b4186f6b6457e060405160405180910390a35050565b600061167f8261096d565b905061168d81600084611ba1565b61169860008361119f565b6001600460008373ffffffffffffffffffffffffffffffffffffffff1673ffffffffffffffffffffffffffffffffffffffff16815260200190815260200160002060008282546116e89190612a78565b925050819055506003600083815260200190815260200160002060006101000a81549073ffffffffffffffffffffffffffffffffffffffff021916905581600073ffffffffffffffffffffffffffffffffffffffff168273ffffffffffffffffffffffffffffffffffffffff167fddf252ad1be2c89b69c2b068fc378daa952ba7f163c4a11628f55a4df523b3ef60405160405180910390a45050565b60005b600860003373ffffffffffffffffffffffffffffffffffffffff1673ffffffffffffffffffffffffffffffffffffffff168152602001908152602001600020805490508110156119225781600860003373ffffffffffffffffffffffffffffffffffffffff1673ffffffffffffffffffffffffffffffffffffffff168152602001908152602001600020828154811061184a577f4e487b7100000000000000000000000000000000000000000000000000000000600052603260045260246000fd5b906000526020600020906003020160010154141561190f57600860003373ffffffffffffffffffffffffffffffffffffffff1673ffffffffffffffffffffffffffffffffffffffff16815260200190815260200160002081815481106118d9577f4e487b7100000000000000000000000000000000000000000000000000000000600052603260045260246000fd5b906000526020600020906003020160008082016000905560018201600090556002820160006119089190611fa4565b5050611922565b808061191a90612bc5565b915050611788565b5050565b611931848484611354565b61193d84848484611ba6565b61197c576040517f08c379a0000000000000000000000000000000000000000000000000000000008152600401611973906126df565b60405180910390fd5b50505050565b606060405180602001604052806000815250905090565b606060008214156119e1576040518060400160405280600181526020017f30000000000000000000000000000000000000000000000000000000000000008152509050611b41565b600082905060005b60008214611a135780806119fc90612bc5565b915050600a82611a0c9190612a47565b91506119e9565b60008167ffffffffffffffff811115611a55577f4e487b7100000000000000000000000000000000000000000000000000000000600052604160045260246000fd5b6040519080825280601f01601f191660200182016040528015611a875781602001600182028036833780820191505090505b5090505b60008514611b3a57600182611aa09190612a78565b9150600a85611aaf9190612c0e565b6030611abb91906129f1565b60f81b818381518110611af7577f4e487b7100000000000000000000000000000000000000000000000000000000600052603260045260246000fd5b60200101907effffffffffffffffffffffffffffffffffffffffffffffffffffffffffffff1916908160001a905350600a85611b339190612a47565b9450611a8b565b8093505050505b919050565b611b508383611d3d565b611b5d6000848484611ba6565b611b9c576040517f08c379a0000000000000000000000000000000000000000000000000000000008152600401611b93906126df565b60405180910390fd5b505050565b505050565b6000611bc78473ffffffffffffffffffffffffffffffffffffffff16611f0b565b15611d30578373ffffffffffffffffffffffffffffffffffffffff1663150b7a02611bf0611197565b8786866040518563ffffffff1660e01b8152600401611c129493929190612656565b602060405180830381600087803b158015611c2c57600080fd5b505af1925050508015611c5d57506040513d601f19601f82011682018060405250810190611c5a91906122a2565b60015b611ce0573d8060008114611c8d576040519150601f19603f3d011682016040523d82523d6000602084013e611c92565b606091505b50600081511415611cd8576040517f08c379a0000000000000000000000000000000000000000000000000000000008152600401611ccf906126df565b60405180910390fd5b805181602001fd5b63150b7a0260e01b7bffffffffffffffffffffffffffffffffffffffffffffffffffffffff1916817bffffffffffffffffffffffffffffffffffffffffffffffffffffffff191614915050611d35565b600190505b949350505050565b600073ffffffffffffffffffffffffffffffffffffffff168273ffffffffffffffffffffffffffffffffffffffff161415611dad576040517f08c379a0000000000000000000000000000000000000000000000000000000008152600401611da49061281f565b60405180910390fd5b611db68161112b565b15611df6576040517f08c379a0000000000000000000000000000000000000000000000000000000008152600401611ded9061271f565b60405180910390fd5b611e0260008383611ba1565b6001600460008473ffffffffffffffffffffffffffffffffffffffff1673ffffffffffffffffffffffffffffffffffffffff1681526020019081526020016000206000828254611e5291906129f1565b92505081905550816003600083815260200190815260200160002060006101000a81548173ffffffffffffffffffffffffffffffffffffffff021916908373ffffffffffffffffffffffffffffffffffffffff160217905550808273ffffffffffffffffffffffffffffffffffffffff16600073ffffffffffffffffffffffffffffffffffffffff167fddf252ad1be2c89b69c2b068fc378daa952ba7f163c4a11628f55a4df523b3ef60405160405180910390a45050565b600080823b905060008111915050919050565b828054611f2a90612b62565b90600052602060002090601f016020900481019282611f4c5760008555611f93565b82601f10611f6557805160ff1916838001178555611f93565b82800160010185558215611f93579182015b82811115611f92578251825591602001919060010190611f77565b5b509050611fa09190611fe4565b5090565b508054611fb090612b62565b6000825580601f10611fc25750611fe1565b601f016020900490600052602060002090810190611fe09190611fe4565b5b50565b5b80821115611ffd576000816000905550600101611fe5565b5090565b600061201461200f8461297d565b612958565b90508281526020810184848401111561202c57600080fd5b612037848285612b20565b509392505050565b60008135905061204e8161318d565b92915050565b600081359050612063816131a4565b92915050565b600081359050612078816131bb565b92915050565b60008151905061208d816131bb565b92915050565b600082601f8301126120a457600080fd5b81356120b4848260208601612001565b91505092915050565b6000813590506120cc816131d2565b92915050565b6000602082840312156120e457600080fd5b60006120f28482850161203f565b91505092915050565b6000806040838503121561210e57600080fd5b600061211c8582860161203f565b925050602061212d8582860161203f565b9150509250929050565b60008060006060848603121561214c57600080fd5b600061215a8682870161203f565b935050602061216b8682870161203f565b925050604061217c868287016120bd565b9150509250925092565b6000806000806080858703121561219c57600080fd5b60006121aa8782880161203f565b94505060206121bb8782880161203f565b93505060406121cc878288016120bd565b925050606085013567ffffffffffffffff8111156121e957600080fd5b6121f587828801612093565b91505092959194509250565b6000806040838503121561221457600080fd5b60006122228582860161203f565b925050602061223385828601612054565b9150509250929050565b6000806040838503121561225057600080fd5b600061225e8582860161203f565b925050602061226f858286016120bd565b9150509250929050565b60006020828403121561228b57600080fd5b600061229984828501612069565b91505092915050565b6000602082840312156122b457600080fd5b60006122c28482850161207e565b91505092915050565b6000602082840312156122dd57600080fd5b60006122eb848285016120bd565b91505092915050565b6122fd81612aac565b82525050565b61230c81612abe565b82525050565b600061231d826129ae565b61232781856129c4565b9350612337818560208601612b2f565b61234081612cfb565b840191505092915050565b6000612356826129b9565b61236081856129d5565b9350612370818560208601612b2f565b61237981612cfb565b840191505092915050565b600061238f826129b9565b61239981856129e6565b93506123a9818560208601612b2f565b80840191505092915050565b60006123c26032836129d5565b91506123cd82612d0c565b604082019050919050565b60006123e56026836129d5565b91506123f082612d5b565b604082019050919050565b6000612408601c836129d5565b915061241382612daa565b602082019050919050565b600061242b6024836129d5565b915061243682612dd3565b604082019050919050565b600061244e6019836129d5565b915061245982612e22565b602082019050919050565b6000612471601e836129d5565b915061247c82612e4b565b602082019050919050565b6000612494602c836129d5565b915061249f82612e74565b604082019050919050565b60006124b76038836129d5565b91506124c282612ec3565b604082019050919050565b60006124da602a836129d5565b91506124e582612f12565b604082019050919050565b60006124fd6029836129d5565b915061250882612f61565b604082019050919050565b60006125206020836129d5565b915061252b82612fb0565b602082019050919050565b6000612543602c836129d5565b915061254e82612fd9565b604082019050919050565b60006125666020836129d5565b915061257182613028565b602082019050919050565b60006125896029836129d5565b915061259482613051565b604082019050919050565b60006125ac602f836129d5565b91506125b7826130a0565b604082019050919050565b60006125cf6021836129d5565b91506125da826130ef565b604082019050919050565b60006125f26031836129d5565b91506125fd8261313e565b604082019050919050565b61261181612b16565b82525050565b60006126238285612384565b915061262f8284612384565b91508190509392505050565b600060208201905061265060008301846122f4565b92915050565b600060808201905061266b60008301876122f4565b61267860208301866122f4565b6126856040830185612608565b81810360608301526126978184612312565b905095945050505050565b60006020820190506126b76000830184612303565b92915050565b600060208201905081810360008301526126d7818461234b565b905092915050565b600060208201905081810360008301526126f8816123b5565b9050919050565b60006020820190508181036000830152612718816123d8565b9050919050565b60006020820190508181036000830152612738816123fb565b9050919050565b600060208201905081810360008301526127588161241e565b9050919050565b6000602082019050818103600083015261277881612441565b9050919050565b6000602082019050818103600083015261279881612464565b9050919050565b600060208201905081810360008301526127b881612487565b9050919050565b600060208201905081810360008301526127d8816124aa565b9050919050565b600060208201905081810360008301526127f8816124cd565b9050919050565b60006020820190508181036000830152612818816124f0565b9050919050565b6000602082019050818103600083015261283881612513565b9050919050565b6000602082019050818103600083015261285881612536565b9050919050565b6000602082019050818103600083015261287881612559565b9050919050565b600060208201905081810360008301526128988161257c565b9050919050565b600060208201905081810360008301526128b88161259f565b9050919050565b600060208201905081810360008301526128d8816125c2565b9050919050565b600060208201905081810360008301526128f8816125e5565b9050919050565b60006020820190506129146000830184612608565b92915050565b600060608201905061292f6000830186612608565b61293c6020830185612608565b818103604083015261294e818461234b565b9050949350505050565b6000612962612973565b905061296e8282612b94565b919050565b6000604051905090565b600067ffffffffffffffff82111561299857612997612ccc565b5b6129a182612cfb565b9050602081019050919050565b600081519050919050565b600081519050919050565b600082825260208201905092915050565b600082825260208201905092915050565b600081905092915050565b60006129fc82612b16565b9150612a0783612b16565b9250827fffffffffffffffffffffffffffffffffffffffffffffffffffffffffffffffff03821115612a3c57612a3b612c3f565b5b828201905092915050565b6000612a5282612b16565b9150612a5d83612b16565b925082612a6d57612a6c612c6e565b5b828204905092915050565b6000612a8382612b16565b9150612a8e83612b16565b925082821015612aa157612aa0612c3f565b5b828203905092915050565b6000612ab782612af6565b9050919050565b60008115159050919050565b60007fffffffff0000000000000000000000000000000000000000000000000000000082169050919050565b600073ffffffffffffffffffffffffffffffffffffffff82169050919050565b6000819050919050565b82818337600083830152505050565b60005b83811015612b4d578082015181840152602081019050612b32565b83811115612b5c576000848401525b50505050565b60006002820490506001821680612b7a57607f821691505b60208210811415612b8e57612b8d612c9d565b5b50919050565b612b9d82612cfb565b810181811067ffffffffffffffff82111715612bbc57612bbb612ccc565b5b80604052505050565b6000612bd082612b16565b91507fffffffffffffffffffffffffffffffffffffffffffffffffffffffffffffffff821415612c0357612c02612c3f565b5b600182019050919050565b6000612c1982612b16565b9150612c2483612b16565b925082612c3457612c33612c6e565b5b828206905092915050565b7f4e487b7100000000000000000000000000000000000000000000000000000000600052601160045260246000fd5b7f4e487b7100000000000000000000000000000000000000000000000000000000600052601260045260246000fd5b7f4e487b7100000000000000000000000000000000000000000000000000000000600052602260045260246000fd5b7f4e487b7100000000000000000000000000000000000000000000000000000000600052604160045260246000fd5b6000601f19601f8301169050919050565b7f4552433732313a207472616e7366657220746f206e6f6e20455243373231526560008201527f63656976657220696d706c656d656e7465720000000000000000000000000000602082015250565b7f4f776e61626c653a206e6577206f776e657220697320746865207a65726f206160008201527f6464726573730000000000000000000000000000000000000000000000000000602082015250565b7f4552433732313a20746f6b656e20616c7265616479206d696e74656400000000600082015250565b7f4552433732313a207472616e7366657220746f20746865207a65726f2061646460008201527f7265737300000000000000000000000000000000000000000000000000000000602082015250565b7f4552433732313a20617070726f766520746f2063616c6c657200000000000000600082015250565b7f4163636573732064656e6965642e204e6f7420796f757220746f6b656e210000600082015250565b7f4552433732313a206f70657261746f7220717565727920666f72206e6f6e657860008201527f697374656e7420746f6b656e0000000000000000000000000000000000000000602082015250565b7f4552433732313a20617070726f76652063616c6c6572206973206e6f74206f7760008201527f6e6572206e6f7220617070726f76656420666f7220616c6c0000000000000000602082015250565b7f4552433732313a2062616c616e636520717565727920666f7220746865207a6560008201527f726f206164647265737300000000000000000000000000000000000000000000602082015250565b7f4552433732313a206f776e657220717565727920666f72206e6f6e657869737460008201527f656e7420746f6b656e0000000000000000000000000000000000000000000000602082015250565b7f4552433732313a206d696e7420746f20746865207a65726f2061646472657373600082015250565b7f4552433732313a20617070726f76656420717565727920666f72206e6f6e657860008201527f697374656e7420746f6b656e0000000000000000000000000000000000000000602082015250565b7f4f776e61626c653a2063616c6c6572206973206e6f7420746865206f776e6572600082015250565b7f4552433732313a207472616e73666572206f6620746f6b656e2074686174206960008201527f73206e6f74206f776e0000000000000000000000000000000000000000000000602082015250565b7f4552433732314d657461646174613a2055524920717565727920666f72206e6f60008201527f6e6578697374656e7420746f6b656e0000000000000000000000000000000000602082015250565b7f4552433732313a20617070726f76616c20746f2063757272656e74206f776e6560008201527f7200000000000000000000000000000000000000000000000000000000000000602082015250565b7f4552433732313a207472616e736665722063616c6c6572206973206e6f74206f60008201527f776e6572206e6f7220617070726f766564000000000000000000000000000000602082015250565b61319681612aac565b81146131a157600080fd5b50565b6131ad81612abe565b81146131b857600080fd5b50565b6131c481612aca565b81146131cf57600080fd5b50565b6131db81612b16565b81146131e657600080fd5b5056fea26469706673582212200f4aa499d0cee5cffd7dfd96775f19a1bcab5644970f43de40a4eb7b5f7ca8c264736f6c63430008040033",
  "immutableReferences": {},
  "source": "// SPDX-License-Identifier: UNLICENSED\r\npragma solidity ^0.8.0;\r\n\r\nimport \"@openzeppelin/contracts/access/Ownable.sol\";\r\nimport \"@openzeppelin/contracts/token/ERC721/ERC721.sol\";\r\n// import \"@openzeppelin/contracts/utils/Strings.sol\";\r\n\r\n\r\ncontract MambaNFT is Ownable, ERC721 {\r\n    \r\n    uint public uid;\r\n\r\n    struct MetaData {\r\n        uint timestamp;\r\n        uint id;\r\n        string tokenURI;\r\n    }\r\n\r\n    constructor() ERC721(\"MambaNFT\", \"MAMBA\") {\r\n        uid = 1;\r\n    }\r\n\r\n    mapping(address => MetaData[]) public ownershipRecords;\r\n\r\n    function mintToken() public returns (uint) {\r\n        uint tid = uid;\r\n        _safeMint(msg.sender, uid);\r\n\r\n        MetaData memory newTokenData = MetaData({\r\n            timestamp : block.timestamp,\r\n            id : uid,\r\n            tokenURI : \"mambaURI\"\r\n        });\r\n        ownershipRecords[msg.sender].push(newTokenData);\r\n        uid++;\r\n        return tid;\r\n    }\r\n\r\n    function burnToken(uint _id) public {\r\n       require(msg.sender == ownerOf(_id), \"Access denied. Not your token!\");\r\n        _burn(_id);\r\n        removeToken(_id);\r\n    }\r\n\r\n    function removeToken(uint _id) private {\r\n        for(uint i=0; i<ownershipRecords[msg.sender].length; i++){\r\n            if  (ownershipRecords[msg.sender][i].id == _id) {\r\n                delete ownershipRecords[msg.sender][i];\r\n                break;\r\n            }\r\n        }\r\n    }\r\n\r\n}",
  "sourcePath": "C:\\Users\\bpoli\\blockchain_WORKSPACE\\truffle-intro\\contracts\\MambaNFT.sol",
  "compiler": {
    "name": "solc",
    "version": "0.8.4+commit.c7e474f2.Emscripten.clang"
  },
  "schemaVersion": "3.4.3",
  "updatedAt": "2021-09-22T12:58:38.099Z",
  "networkType": "ethereum",
  "devdoc": {
    "kind": "dev",
    "methods": {
      "approve(address,uint256)": {
        "details": "See {IERC721-approve}."
      },
      "balanceOf(address)": {
        "details": "See {IERC721-balanceOf}."
      },
      "getApproved(uint256)": {
        "details": "See {IERC721-getApproved}."
      },
      "isApprovedForAll(address,address)": {
        "details": "See {IERC721-isApprovedForAll}."
      },
      "name()": {
        "details": "See {IERC721Metadata-name}."
      },
      "owner()": {
        "details": "Returns the address of the current owner."
      },
      "ownerOf(uint256)": {
        "details": "See {IERC721-ownerOf}."
      },
      "renounceOwnership()": {
        "details": "Leaves the contract without owner. It will not be possible to call `onlyOwner` functions anymore. Can only be called by the current owner. NOTE: Renouncing ownership will leave the contract without an owner, thereby removing any functionality that is only available to the owner."
      },
      "safeTransferFrom(address,address,uint256)": {
        "details": "See {IERC721-safeTransferFrom}."
      },
      "safeTransferFrom(address,address,uint256,bytes)": {
        "details": "See {IERC721-safeTransferFrom}."
      },
      "setApprovalForAll(address,bool)": {
        "details": "See {IERC721-setApprovalForAll}."
      },
      "supportsInterface(bytes4)": {
        "details": "See {IERC165-supportsInterface}."
      },
      "symbol()": {
        "details": "See {IERC721Metadata-symbol}."
      },
      "tokenURI(uint256)": {
        "details": "See {IERC721Metadata-tokenURI}."
      },
      "transferFrom(address,address,uint256)": {
        "details": "See {IERC721-transferFrom}."
      },
      "transferOwnership(address)": {
        "details": "Transfers ownership of the contract to a new account (`newOwner`). Can only be called by the current owner."
      }
    },
    "version": 1
  },
  "userdoc": {
    "kind": "user",
    "methods": {},
    "version": 1
  }
}