{
  "contractName": "MambaCoin",
  "abi": [
    {
      "inputs": [],
      "stateMutability": "nonpayable",
      "type": "constructor"
    },
    {
      "anonymous": false,
      "inputs": [
        {
          "indexed": true,
          "internalType": "address",
          "name": "owner",
          "type": "address"
        },
        {
          "indexed": true,
          "internalType": "address",
          "name": "spender",
          "type": "address"
        },
        {
          "indexed": false,
          "internalType": "uint256",
          "name": "value",
          "type": "uint256"
        }
      ],
      "name": "Approval",
      "type": "event"
    },
    {
      "anonymous": false,
      "inputs": [
        {
          "indexed": true,
          "internalType": "address",
          "name": "previousOwner",
          "type": "address"
        },
        {
          "indexed": true,
          "internalType": "address",
          "name": "newOwner",
          "type": "address"
        }
      ],
      "name": "OwnershipTransferred",
      "type": "event"
    },
    {
      "anonymous": false,
      "inputs": [
        {
          "indexed": false,
          "internalType": "string",
          "name": "",
          "type": "string"
        },
        {
          "indexed": true,
          "internalType": "address",
          "name": "",
          "type": "address"
        },
        {
          "indexed": false,
          "internalType": "uint256",
          "name": "",
          "type": "uint256"
        }
      ],
      "name": "Transfer",
      "type": "event"
    },
    {
      "anonymous": false,
      "inputs": [
        {
          "indexed": true,
          "internalType": "address",
          "name": "from",
          "type": "address"
        },
        {
          "indexed": true,
          "internalType": "address",
          "name": "to",
          "type": "address"
        },
        {
          "indexed": false,
          "internalType": "uint256",
          "name": "value",
          "type": "uint256"
        }
      ],
      "name": "Transfer",
      "type": "event"
    },
    {
      "anonymous": false,
      "inputs": [
        {
          "indexed": false,
          "internalType": "uint256",
          "name": "",
          "type": "uint256"
        }
      ],
      "name": "supplyChanged",
      "type": "event"
    },
    {
      "inputs": [
        {
          "internalType": "address",
          "name": "owner",
          "type": "address"
        },
        {
          "internalType": "address",
          "name": "spender",
          "type": "address"
        }
      ],
      "name": "allowance",
      "outputs": [
        {
          "internalType": "uint256",
          "name": "",
          "type": "uint256"
        }
      ],
      "stateMutability": "view",
      "type": "function",
      "constant": true
    },
    {
      "inputs": [
        {
          "internalType": "address",
          "name": "spender",
          "type": "address"
        },
        {
          "internalType": "uint256",
          "name": "amount",
          "type": "uint256"
        }
      ],
      "name": "approve",
      "outputs": [
        {
          "internalType": "bool",
          "name": "",
          "type": "bool"
        }
      ],
      "stateMutability": "nonpayable",
      "type": "function"
    },
    {
      "inputs": [
        {
          "internalType": "address",
          "name": "account",
          "type": "address"
        }
      ],
      "name": "balanceOf",
      "outputs": [
        {
          "internalType": "uint256",
          "name": "",
          "type": "uint256"
        }
      ],
      "stateMutability": "view",
      "type": "function",
      "constant": true
    },
    {
      "inputs": [
        {
          "internalType": "address",
          "name": "",
          "type": "address"
        }
      ],
      "name": "balances",
      "outputs": [
        {
          "internalType": "uint256",
          "name": "",
          "type": "uint256"
        }
      ],
      "stateMutability": "view",
      "type": "function",
      "constant": true
    },
    {
      "inputs": [],
      "name": "decimals",
      "outputs": [
        {
          "internalType": "uint8",
          "name": "",
          "type": "uint8"
        }
      ],
      "stateMutability": "view",
      "type": "function",
      "constant": true
    },
    {
      "inputs": [
        {
          "internalType": "address",
          "name": "spender",
          "type": "address"
        },
        {
          "internalType": "uint256",
          "name": "subtractedValue",
          "type": "uint256"
        }
      ],
      "name": "decreaseAllowance",
      "outputs": [
        {
          "internalType": "bool",
          "name": "",
          "type": "bool"
        }
      ],
      "stateMutability": "nonpayable",
      "type": "function"
    },
    {
      "inputs": [
        {
          "internalType": "address",
          "name": "spender",
          "type": "address"
        },
        {
          "internalType": "uint256",
          "name": "addedValue",
          "type": "uint256"
        }
      ],
      "name": "increaseAllowance",
      "outputs": [
        {
          "internalType": "bool",
          "name": "",
          "type": "bool"
        }
      ],
      "stateMutability": "nonpayable",
      "type": "function"
    },
    {
      "inputs": [],
      "name": "name",
      "outputs": [
        {
          "internalType": "string",
          "name": "",
          "type": "string"
        }
      ],
      "stateMutability": "view",
      "type": "function",
      "constant": true
    },
    {
      "inputs": [],
      "name": "owner",
      "outputs": [
        {
          "internalType": "address",
          "name": "",
          "type": "address"
        }
      ],
      "stateMutability": "view",
      "type": "function",
      "constant": true
    },
    {
      "inputs": [
        {
          "internalType": "uint256",
          "name": "",
          "type": "uint256"
        }
      ],
      "name": "recordLog",
      "outputs": [
        {
          "internalType": "address",
          "name": "sender",
          "type": "address"
        },
        {
          "internalType": "uint256",
          "name": "id",
          "type": "uint256"
        }
      ],
      "stateMutability": "view",
      "type": "function",
      "constant": true
    },
    {
      "inputs": [],
      "name": "renounceOwnership",
      "outputs": [],
      "stateMutability": "nonpayable",
      "type": "function"
    },
    {
      "inputs": [],
      "name": "symbol",
      "outputs": [
        {
          "internalType": "string",
          "name": "",
          "type": "string"
        }
      ],
      "stateMutability": "view",
      "type": "function",
      "constant": true
    },
    {
      "inputs": [],
      "name": "totalSupply",
      "outputs": [
        {
          "internalType": "uint256",
          "name": "",
          "type": "uint256"
        }
      ],
      "stateMutability": "view",
      "type": "function",
      "constant": true
    },
    {
      "inputs": [
        {
          "internalType": "address",
          "name": "sender",
          "type": "address"
        },
        {
          "internalType": "address",
          "name": "recipient",
          "type": "address"
        },
        {
          "internalType": "uint256",
          "name": "amount",
          "type": "uint256"
        }
      ],
      "name": "transferFrom",
      "outputs": [
        {
          "internalType": "bool",
          "name": "",
          "type": "bool"
        }
      ],
      "stateMutability": "nonpayable",
      "type": "function"
    },
    {
      "inputs": [
        {
          "internalType": "address",
          "name": "newOwner",
          "type": "address"
        }
      ],
      "name": "transferOwnership",
      "outputs": [],
      "stateMutability": "nonpayable",
      "type": "function"
    },
    {
      "inputs": [],
      "name": "updateTotalSupply",
      "outputs": [],
      "stateMutability": "nonpayable",
      "type": "function"
    },
    {
      "inputs": [
        {
          "internalType": "address",
          "name": "_to",
          "type": "address"
        },
        {
          "internalType": "uint256",
          "name": "_amount",
          "type": "uint256"
        }
      ],
      "name": "transfer",
      "outputs": [
        {
          "internalType": "bool",
          "name": "",
          "type": "bool"
        }
      ],
      "stateMutability": "nonpayable",
      "type": "function"
    },
    {
      "inputs": [
        {
          "internalType": "address",
          "name": "_user",
          "type": "address"
        }
      ],
      "name": "getRecords",
      "outputs": [
        {
          "components": [
            {
              "internalType": "uint256",
              "name": "id",
              "type": "uint256"
            },
            {
              "internalType": "address",
              "name": "recipient",
              "type": "address"
            },
            {
              "internalType": "uint256",
              "name": "amount",
              "type": "uint256"
            },
            {
              "internalType": "enum MambaCoin.PaymentType",
              "name": "paymentType",
              "type": "uint8"
            },
            {
              "internalType": "string",
              "name": "comment",
              "type": "string"
            },
            {
              "internalType": "uint256",
              "name": "timestamp",
              "type": "uint256"
            }
          ],
          "internalType": "struct MambaCoin.Payment[]",
          "name": "",
          "type": "tuple[]"
        }
      ],
      "stateMutability": "view",
      "type": "function",
      "constant": true
    },
    {
      "inputs": [],
      "name": "ownRecords",
      "outputs": [
        {
          "components": [
            {
              "internalType": "uint256",
              "name": "id",
              "type": "uint256"
            },
            {
              "internalType": "address",
              "name": "recipient",
              "type": "address"
            },
            {
              "internalType": "uint256",
              "name": "amount",
              "type": "uint256"
            },
            {
              "internalType": "enum MambaCoin.PaymentType",
              "name": "paymentType",
              "type": "uint8"
            },
            {
              "internalType": "string",
              "name": "comment",
              "type": "string"
            },
            {
              "internalType": "uint256",
              "name": "timestamp",
              "type": "uint256"
            }
          ],
          "internalType": "struct MambaCoin.Payment[]",
          "name": "",
          "type": "tuple[]"
        }
      ],
      "stateMutability": "view",
      "type": "function",
      "constant": true
    },
    {
      "inputs": [
        {
          "internalType": "uint256",
          "name": "_id",
          "type": "uint256"
        },
        {
          "internalType": "enum MambaCoin.PaymentType",
          "name": "_type",
          "type": "uint8"
        },
        {
          "internalType": "string",
          "name": "_comment",
          "type": "string"
        }
      ],
      "name": "updateDetails",
      "outputs": [],
      "stateMutability": "nonpayable",
      "type": "function"
    }
  ],
  "bytecode": "0x608060405260006009553480156200001657600080fd5b506040518060400160405280600981526020017f4d616d6261436f696e00000000000000000000000000000000000000000000008152506040518060400160405280600581526020017f4d414d4241000000000000000000000000000000000000000000000000000000815250620000a362000097620001a360201b60201c565b620001ab60201b60201c565b8160049080519060200190620000bb92919062000426565b508060059080519060200190620000d492919062000426565b50505033600860006101000a81548173ffffffffffffffffffffffffffffffffffffffff021916908373ffffffffffffffffffffffffffffffffffffffff1602179055506200013b6200012c6200026f60201b60201c565b6127106200029860201b60201c565b6200014b6200041260201b60201c565b600660006200015f6200026f60201b60201c565b73ffffffffffffffffffffffffffffffffffffffff1673ffffffffffffffffffffffffffffffffffffffff1681526020019081526020016000208190555062000682565b600033905090565b60008060009054906101000a900473ffffffffffffffffffffffffffffffffffffffff169050816000806101000a81548173ffffffffffffffffffffffffffffffffffffffff021916908373ffffffffffffffffffffffffffffffffffffffff1602179055508173ffffffffffffffffffffffffffffffffffffffff168173ffffffffffffffffffffffffffffffffffffffff167f8be0079c531659141344cd1fd0a4f28419497f9722a3daafe3b4186f6b6457e060405160405180910390a35050565b60008060009054906101000a900473ffffffffffffffffffffffffffffffffffffffff16905090565b600073ffffffffffffffffffffffffffffffffffffffff168273ffffffffffffffffffffffffffffffffffffffff1614156200030b576040517f08c379a000000000000000000000000000000000000000000000000000000000815260040162000302906200050e565b60405180910390fd5b6200031f600083836200041c60201b60201c565b80600360008282546200033391906200055e565b9250508190555080600160008473ffffffffffffffffffffffffffffffffffffffff1673ffffffffffffffffffffffffffffffffffffffff16815260200190815260200160002060008282546200038b91906200055e565b925050819055508173ffffffffffffffffffffffffffffffffffffffff16600073ffffffffffffffffffffffffffffffffffffffff167fddf252ad1be2c89b69c2b068fc378daa952ba7f163c4a11628f55a4df523b3ef83604051620003f2919062000530565b60405180910390a36200040e600083836200042160201b60201c565b5050565b6000600354905090565b505050565b505050565b8280546200043490620005c5565b90600052602060002090601f016020900481019282620004585760008555620004a4565b82601f106200047357805160ff1916838001178555620004a4565b82800160010185558215620004a4579182015b82811115620004a357825182559160200191906001019062000486565b5b509050620004b39190620004b7565b5090565b5b80821115620004d2576000816000905550600101620004b8565b5090565b6000620004e5601f836200054d565b9150620004f28262000659565b602082019050919050565b6200050881620005bb565b82525050565b600060208201905081810360008301526200052981620004d6565b9050919050565b6000602082019050620005476000830184620004fd565b92915050565b600082825260208201905092915050565b60006200056b82620005bb565b91506200057883620005bb565b9250827fffffffffffffffffffffffffffffffffffffffffffffffffffffffffffffffff03821115620005b057620005af620005fb565b5b828201905092915050565b6000819050919050565b60006002820490506001821680620005de57607f821691505b60208210811415620005f557620005f46200062a565b5b50919050565b7f4e487b7100000000000000000000000000000000000000000000000000000000600052601160045260246000fd5b7f4e487b7100000000000000000000000000000000000000000000000000000000600052602260045260246000fd5b7f45524332303a206d696e7420746f20746865207a65726f206164647265737300600082015250565b6134e680620006926000396000f3fe608060405234801561001057600080fd5b506004361061012c5760003560e01c8063715018a6116100ad578063a457c2d711610071578063a457c2d71461035c578063a9059cbb1461038c578063d0dc5c65146103bc578063dd62ed3e146103c6578063f2fde38b146103f65761012c565b8063715018a6146102ca5780638da5cb5b146102d457806395d89b41146102f25780639e12356114610310578063a0076e841461032c5761012c565b8063313ce567116100f4578063313ce567146101fd578063395093511461021b5780634a1dc18d1461024b5780635e5acf971461027c57806370a082311461029a5761012c565b806306fdde0314610131578063095ea7b31461014f57806318160ddd1461017f57806323b872dd1461019d57806327e235e3146101cd575b600080fd5b610139610412565b6040516101469190612b4d565b60405180910390f35b6101696004803603810190610164919061257a565b6104a4565b6040516101769190612b32565b60405180910390f35b6101876104c2565b6040516101949190612d3d565b60405180910390f35b6101b760048036038101906101b2919061252b565b6104cc565b6040516101c49190612b32565b60405180910390f35b6101e760048036038101906101e291906124c6565b6105c4565b6040516101f49190612d3d565b60405180910390f35b6102056105dc565b6040516102129190612d58565b60405180910390f35b6102356004803603810190610230919061257a565b6105e5565b6040516102429190612b32565b60405180910390f35b610265600480360381019061026091906125b6565b610691565b604051610273929190612ae7565b60405180910390f35b6102846106d5565b6040516102919190612b10565b60405180910390f35b6102b460048036038101906102af91906124c6565b6108fe565b6040516102c19190612d3d565b60405180910390f35b6102d2610947565b005b6102dc6109cf565b6040516102e99190612acc565b60405180910390f35b6102fa6109f8565b6040516103079190612b4d565b60405180910390f35b61032a600480360381019061032591906125df565b610a8a565b005b610346600480360381019061034191906124c6565b611078565b6040516103539190612b10565b60405180910390f35b6103766004803603810190610371919061257a565b6112a3565b6040516103839190612b32565b60405180910390f35b6103a660048036038101906103a1919061257a565b61138e565b6040516103b39190612b32565b60405180910390f35b6103c46116c2565b005b6103e060048036038101906103db91906124ef565b61178f565b6040516103ed9190612d3d565b60405180910390f35b610410600480360381019061040b91906124c6565b611816565b005b60606004805461042190612fae565b80601f016020809104026020016040519081016040528092919081815260200182805461044d90612fae565b801561049a5780601f1061046f5761010080835404028352916020019161049a565b820191906000526020600020905b81548152906001019060200180831161047d57829003601f168201915b5050505050905090565b60006104b86104b161190e565b8484611916565b6001905092915050565b6000600354905090565b60006104d9848484611ae1565b6000600260008673ffffffffffffffffffffffffffffffffffffffff1673ffffffffffffffffffffffffffffffffffffffff168152602001908152602001600020600061052461190e565b73ffffffffffffffffffffffffffffffffffffffff1673ffffffffffffffffffffffffffffffffffffffff168152602001908152602001600020549050828110156105a4576040517f08c379a000000000000000000000000000000000000000000000000000000000815260040161059b90612c5d565b60405180910390fd5b6105b8856105b061190e565b858403611916565b60019150509392505050565b60066020528060005260406000206000915090505481565b60006012905090565b60006106876105f261190e565b84846002600061060061190e565b73ffffffffffffffffffffffffffffffffffffffff1673ffffffffffffffffffffffffffffffffffffffff16815260200190815260200160002060008873ffffffffffffffffffffffffffffffffffffffff1673ffffffffffffffffffffffffffffffffffffffff168152602001908152602001600020546106829190612de4565b611916565b6001905092915050565b600a6020528060005260406000206000915090508060000160009054906101000a900473ffffffffffffffffffffffffffffffffffffffff16908060010154905082565b6060600760003373ffffffffffffffffffffffffffffffffffffffff1673ffffffffffffffffffffffffffffffffffffffff168152602001908152602001600020805480602002602001604051908101604052809291908181526020016000905b828210156108f557838290600052602060002090600602016040518060c0016040529081600082015481526020016001820160009054906101000a900473ffffffffffffffffffffffffffffffffffffffff1673ffffffffffffffffffffffffffffffffffffffff1673ffffffffffffffffffffffffffffffffffffffff168152602001600282015481526020016003820160009054906101000a900460ff16600481111561080e577f4e487b7100000000000000000000000000000000000000000000000000000000600052602160045260246000fd5b6004811115610846577f4e487b7100000000000000000000000000000000000000000000000000000000600052602160045260246000fd5b815260200160048201805461085a90612fae565b80601f016020809104026020016040519081016040528092919081815260200182805461088690612fae565b80156108d35780601f106108a8576101008083540402835291602001916108d3565b820191906000526020600020905b8154815290600101906020018083116108b657829003601f168201915b5050505050815260200160058201548152505081526020019060010190610736565b50505050905090565b6000600160008373ffffffffffffffffffffffffffffffffffffffff1673ffffffffffffffffffffffffffffffffffffffff168152602001908152602001600020549050919050565b61094f61190e565b73ffffffffffffffffffffffffffffffffffffffff1661096d6109cf565b73ffffffffffffffffffffffffffffffffffffffff16146109c3576040517f08c379a00000000000000000000000000000000000000000000000000000000081526004016109ba90612c7d565b60405180910390fd5b6109cd6000611d65565b565b60008060009054906101000a900473ffffffffffffffffffffffffffffffffffffffff16905090565b606060058054610a0790612fae565b80601f0160208091040260200160405190810160405280929190818152602001828054610a3390612fae565b8015610a805780601f10610a5557610100808354040283529160200191610a80565b820191906000526020600020905b815481529060010190602001808311610a6357829003601f168201915b5050505050905090565b6009548410610ace576040517f08c379a0000000000000000000000000000000000000000000000000000000008152600401610ac590612cdd565b60405180910390fd5b6005836004811115610b09577f4e487b7100000000000000000000000000000000000000000000000000000000600052602160045260246000fd5b10610b49576040517f08c379a0000000000000000000000000000000000000000000000000000000008152600401610b4090612c3d565b60405180910390fd5b600860009054906101000a900473ffffffffffffffffffffffffffffffffffffffff1673ffffffffffffffffffffffffffffffffffffffff163373ffffffffffffffffffffffffffffffffffffffff161415610e0d576000600a60008681526020019081526020016000206040518060400160405290816000820160009054906101000a900473ffffffffffffffffffffffffffffffffffffffff1673ffffffffffffffffffffffffffffffffffffffff1673ffffffffffffffffffffffffffffffffffffffff16815260200160018201548152505090508360076000836000015173ffffffffffffffffffffffffffffffffffffffff1673ffffffffffffffffffffffffffffffffffffffff168152602001908152602001600020826020015181548110610ca1577f4e487b7100000000000000000000000000000000000000000000000000000000600052603260045260246000fd5b906000526020600020906006020160030160006101000a81548160ff02191690836004811115610cfa577f4e487b7100000000000000000000000000000000000000000000000000000000600052602160045260246000fd5b02179055508282610d42600860009054906101000a900473ffffffffffffffffffffffffffffffffffffffff1673ffffffffffffffffffffffffffffffffffffffff16611e29565b604051602001610d5493929190612a9b565b60405160208183030381529060405260076000836000015173ffffffffffffffffffffffffffffffffffffffff1673ffffffffffffffffffffffffffffffffffffffff168152602001908152602001600020826020015181548110610de2577f4e487b7100000000000000000000000000000000000000000000000000000000600052603260045260246000fd5b90600052602060002090600602016004019080519060200190610e06929190612314565b5050611072565b60005b600760003373ffffffffffffffffffffffffffffffffffffffff1673ffffffffffffffffffffffffffffffffffffffff168152602001908152602001600020805490508110156110705784600760003373ffffffffffffffffffffffffffffffffffffffff1673ffffffffffffffffffffffffffffffffffffffff1681526020019081526020016000208281548110610ed2577f4e487b7100000000000000000000000000000000000000000000000000000000600052603260045260246000fd5b906000526020600020906006020160000154141561105d5783600760003373ffffffffffffffffffffffffffffffffffffffff1673ffffffffffffffffffffffffffffffffffffffff1681526020019081526020016000208281548110610f62577f4e487b7100000000000000000000000000000000000000000000000000000000600052603260045260246000fd5b906000526020600020906006020160030160006101000a81548160ff02191690836004811115610fbb577f4e487b7100000000000000000000000000000000000000000000000000000000600052602160045260246000fd5b02179055508282600760003373ffffffffffffffffffffffffffffffffffffffff1673ffffffffffffffffffffffffffffffffffffffff1681526020019081526020016000208381548110611039577f4e487b7100000000000000000000000000000000000000000000000000000000600052603260045260246000fd5b9060005260206000209060060201600401919061105792919061239a565b50611070565b808061106890612fe0565b915050610e10565b505b50505050565b6060600760008373ffffffffffffffffffffffffffffffffffffffff1673ffffffffffffffffffffffffffffffffffffffff168152602001908152602001600020805480602002602001604051908101604052809291908181526020016000905b8282101561129857838290600052602060002090600602016040518060c0016040529081600082015481526020016001820160009054906101000a900473ffffffffffffffffffffffffffffffffffffffff1673ffffffffffffffffffffffffffffffffffffffff1673ffffffffffffffffffffffffffffffffffffffff168152602001600282015481526020016003820160009054906101000a900460ff1660048111156111b1577f4e487b7100000000000000000000000000000000000000000000000000000000600052602160045260246000fd5b60048111156111e9577f4e487b7100000000000000000000000000000000000000000000000000000000600052602160045260246000fd5b81526020016004820180546111fd90612fae565b80601f016020809104026020016040519081016040528092919081815260200182805461122990612fae565b80156112765780601f1061124b57610100808354040283529160200191611276565b820191906000526020600020905b81548152906001019060200180831161125957829003601f168201915b50505050508152602001600582015481525050815260200190600101906110d9565b505050509050919050565b600080600260006112b261190e565b73ffffffffffffffffffffffffffffffffffffffff1673ffffffffffffffffffffffffffffffffffffffff16815260200190815260200160002060008573ffffffffffffffffffffffffffffffffffffffff1673ffffffffffffffffffffffffffffffffffffffff1681526020019081526020016000205490508281101561136f576040517f08c379a000000000000000000000000000000000000000000000000000000000815260040161136690612cfd565b60405180910390fd5b61138361137a61190e565b85858403611916565b600191505092915050565b600061139b338484611ae1565b60006040518060c0016040528060095481526020018573ffffffffffffffffffffffffffffffffffffffff1681526020018481526020016000600481111561140c577f4e487b7100000000000000000000000000000000000000000000000000000000600052602160045260246000fd5b8152602001604051806020016040528060008152508152602001428152509050600760003373ffffffffffffffffffffffffffffffffffffffff1673ffffffffffffffffffffffffffffffffffffffff1681526020019081526020016000208190806001815401808255809150506001900390600052602060002090600602016000909190919091506000820151816000015560208201518160010160006101000a81548173ffffffffffffffffffffffffffffffffffffffff021916908373ffffffffffffffffffffffffffffffffffffffff1602179055506040820151816002015560608201518160030160006101000a81548160ff02191690836004811115611541577f4e487b7100000000000000000000000000000000000000000000000000000000600052602160045260246000fd5b02179055506080820151816004019080519060200190611562929190612314565b5060a08201518160050155505060405180604001604052803373ffffffffffffffffffffffffffffffffffffffff1681526020016001600760003373ffffffffffffffffffffffffffffffffffffffff1673ffffffffffffffffffffffffffffffffffffffff168152602001908152602001600020805490506115e59190612e94565b815250600a6000600954815260200190815260200160002060008201518160000160006101000a81548173ffffffffffffffffffffffffffffffffffffffff021916908373ffffffffffffffffffffffffffffffffffffffff160217905550602082015181600101559050506009600081548092919061166490612fe0565b91905055508373ffffffffffffffffffffffffffffffffffffffff167fdc8aa50227ab4aaa7a5079ad958198b22ff0c5f4594bd167f4ce5d5531df5ab3846040516116af9190612baf565b60405180910390a2600191505092915050565b6116ca61190e565b73ffffffffffffffffffffffffffffffffffffffff166116e86109cf565b73ffffffffffffffffffffffffffffffffffffffff161461173e576040517f08c379a000000000000000000000000000000000000000000000000000000000815260040161173590612c7d565b60405180910390fd5b61174f3361174a6104c2565b611eaf565b7f11807018b39c540735143b98c01d9067bb1fbade40f566be966667aec0710b376117786104c2565b6040516117859190612d3d565b60405180910390a1565b6000600260008473ffffffffffffffffffffffffffffffffffffffff1673ffffffffffffffffffffffffffffffffffffffff16815260200190815260200160002060008373ffffffffffffffffffffffffffffffffffffffff1673ffffffffffffffffffffffffffffffffffffffff16815260200190815260200160002054905092915050565b61181e61190e565b73ffffffffffffffffffffffffffffffffffffffff1661183c6109cf565b73ffffffffffffffffffffffffffffffffffffffff1614611892576040517f08c379a000000000000000000000000000000000000000000000000000000000815260040161188990612c7d565b60405180910390fd5b600073ffffffffffffffffffffffffffffffffffffffff168173ffffffffffffffffffffffffffffffffffffffff161415611902576040517f08c379a00000000000000000000000000000000000000000000000000000000081526004016118f990612bdd565b60405180910390fd5b61190b81611d65565b50565b600033905090565b600073ffffffffffffffffffffffffffffffffffffffff168373ffffffffffffffffffffffffffffffffffffffff161415611986576040517f08c379a000000000000000000000000000000000000000000000000000000000815260040161197d90612cbd565b60405180910390fd5b600073ffffffffffffffffffffffffffffffffffffffff168273ffffffffffffffffffffffffffffffffffffffff1614156119f6576040517f08c379a00000000000000000000000000000000000000000000000000000000081526004016119ed90612bfd565b60405180910390fd5b80600260008573ffffffffffffffffffffffffffffffffffffffff1673ffffffffffffffffffffffffffffffffffffffff16815260200190815260200160002060008473ffffffffffffffffffffffffffffffffffffffff1673ffffffffffffffffffffffffffffffffffffffff168152602001908152602001600020819055508173ffffffffffffffffffffffffffffffffffffffff168373ffffffffffffffffffffffffffffffffffffffff167f8c5be1e5ebec7d5bd14f71427d1e84f3dd0314c0f7b2291e5b200ac8c7c3b92583604051611ad49190612d3d565b60405180910390a3505050565b600073ffffffffffffffffffffffffffffffffffffffff168373ffffffffffffffffffffffffffffffffffffffff161415611b51576040517f08c379a0000000000000000000000000000000000000000000000000000000008152600401611b4890612c9d565b60405180910390fd5b600073ffffffffffffffffffffffffffffffffffffffff168273ffffffffffffffffffffffffffffffffffffffff161415611bc1576040517f08c379a0000000000000000000000000000000000000000000000000000000008152600401611bb890612b8f565b60405180910390fd5b611bcc838383612010565b6000600160008573ffffffffffffffffffffffffffffffffffffffff1673ffffffffffffffffffffffffffffffffffffffff16815260200190815260200160002054905081811015611c53576040517f08c379a0000000000000000000000000000000000000000000000000000000008152600401611c4a90612c1d565b60405180910390fd5b818103600160008673ffffffffffffffffffffffffffffffffffffffff1673ffffffffffffffffffffffffffffffffffffffff1681526020019081526020016000208190555081600160008573ffffffffffffffffffffffffffffffffffffffff1673ffffffffffffffffffffffffffffffffffffffff1681526020019081526020016000206000828254611ce89190612de4565b925050819055508273ffffffffffffffffffffffffffffffffffffffff168473ffffffffffffffffffffffffffffffffffffffff167fddf252ad1be2c89b69c2b068fc378daa952ba7f163c4a11628f55a4df523b3ef84604051611d4c9190612d3d565b60405180910390a3611d5f848484612015565b50505050565b60008060009054906101000a900473ffffffffffffffffffffffffffffffffffffffff169050816000806101000a81548173ffffffffffffffffffffffffffffffffffffffff021916908373ffffffffffffffffffffffffffffffffffffffff1602179055508173ffffffffffffffffffffffffffffffffffffffff168173ffffffffffffffffffffffffffffffffffffffff167f8be0079c531659141344cd1fd0a4f28419497f9722a3daafe3b4186f6b6457e060405160405180910390a35050565b60606000821415611e71576040518060400160405280600481526020017f30783030000000000000000000000000000000000000000000000000000000008152509050611eaa565b600082905060005b60008214611e9b578080611e8c90612fe0565b915050600882901c9150611e79565b611ea5848261201a565b925050505b919050565b600073ffffffffffffffffffffffffffffffffffffffff168273ffffffffffffffffffffffffffffffffffffffff161415611f1f576040517f08c379a0000000000000000000000000000000000000000000000000000000008152600401611f1690612d1d565b60405180910390fd5b611f2b60008383612010565b8060036000828254611f3d9190612de4565b9250508190555080600160008473ffffffffffffffffffffffffffffffffffffffff1673ffffffffffffffffffffffffffffffffffffffff1681526020019081526020016000206000828254611f939190612de4565b925050819055508173ffffffffffffffffffffffffffffffffffffffff16600073ffffffffffffffffffffffffffffffffffffffff167fddf252ad1be2c89b69c2b068fc378daa952ba7f163c4a11628f55a4df523b3ef83604051611ff89190612d3d565b60405180910390a361200c60008383612015565b5050565b505050565b505050565b60606000600283600261202d9190612e3a565b6120379190612de4565b67ffffffffffffffff811115612076577f4e487b7100000000000000000000000000000000000000000000000000000000600052604160045260246000fd5b6040519080825280601f01601f1916602001820160405280156120a85781602001600182028036833780820191505090505b5090507f300000000000000000000000000000000000000000000000000000000000000081600081518110612106577f4e487b7100000000000000000000000000000000000000000000000000000000600052603260045260246000fd5b60200101907effffffffffffffffffffffffffffffffffffffffffffffffffffffffffffff1916908160001a9053507f780000000000000000000000000000000000000000000000000000000000000081600181518110612190577f4e487b7100000000000000000000000000000000000000000000000000000000600052603260045260246000fd5b60200101907effffffffffffffffffffffffffffffffffffffffffffffffffffffffffffff1916908160001a905350600060018460026121d09190612e3a565b6121da9190612de4565b90505b60018111156122c6577f3031323334353637383961626364656600000000000000000000000000000000600f861660108110612242577f4e487b7100000000000000000000000000000000000000000000000000000000600052603260045260246000fd5b1a60f81b82828151811061227f577f4e487b7100000000000000000000000000000000000000000000000000000000600052603260045260246000fd5b60200101907effffffffffffffffffffffffffffffffffffffffffffffffffffffffffffff1916908160001a905350600485901c9450806122bf90612f84565b90506121dd565b506000841461230a576040517f08c379a000000000000000000000000000000000000000000000000000000000815260040161230190612b6f565b60405180910390fd5b8091505092915050565b82805461232090612fae565b90600052602060002090601f0160209004810192826123425760008555612389565b82601f1061235b57805160ff1916838001178555612389565b82800160010185558215612389579182015b8281111561238857825182559160200191906001019061236d565b5b5090506123969190612420565b5090565b8280546123a690612fae565b90600052602060002090601f0160209004810192826123c8576000855561240f565b82601f106123e157803560ff191683800117855561240f565b8280016001018555821561240f579182015b8281111561240e5782358255916020019190600101906123f3565b5b50905061241c9190612420565b5090565b5b80821115612439576000816000905550600101612421565b5090565b60008135905061244c81613472565b92915050565b60008135905061246181613489565b92915050565b60008083601f84011261247957600080fd5b8235905067ffffffffffffffff81111561249257600080fd5b6020830191508360018202830111156124aa57600080fd5b9250929050565b6000813590506124c081613499565b92915050565b6000602082840312156124d857600080fd5b60006124e68482850161243d565b91505092915050565b6000806040838503121561250257600080fd5b60006125108582860161243d565b92505060206125218582860161243d565b9150509250929050565b60008060006060848603121561254057600080fd5b600061254e8682870161243d565b935050602061255f8682870161243d565b9250506040612570868287016124b1565b9150509250925092565b6000806040838503121561258d57600080fd5b600061259b8582860161243d565b92505060206125ac858286016124b1565b9150509250929050565b6000602082840312156125c857600080fd5b60006125d6848285016124b1565b91505092915050565b600080600080606085870312156125f557600080fd5b6000612603878288016124b1565b945050602061261487828801612452565b935050604085013567ffffffffffffffff81111561263157600080fd5b61263d87828801612467565b925092505092959194509250565b600061265783836129e5565b905092915050565b61266881612ec8565b82525050565b61267781612ec8565b82525050565b600061268882612d83565b6126928185612da6565b9350836020820285016126a485612d73565b8060005b858110156126e057848403895281516126c1858261264b565b94506126cc83612d99565b925060208a019950506001810190506126a8565b50829750879550505050505092915050565b6126fb81612eda565b82525050565b61270a81612f30565b82525050565b600061271c8385612dd9565b9350612729838584612f42565b82840190509392505050565b600061274082612d8e565b61274a8185612db7565b935061275a818560208601612f51565b612763816130b6565b840191505092915050565b600061277982612d8e565b6127838185612dc8565b9350612793818560208601612f51565b61279c816130b6565b840191505092915050565b60006127b282612d8e565b6127bc8185612dd9565b93506127cc818560208601612f51565b80840191505092915050565b60006127e5602083612dc8565b91506127f0826130c7565b602082019050919050565b6000612808602383612dc8565b9150612813826130f0565b604082019050919050565b600061282b601383612dc8565b91506128368261313f565b602082019050919050565b600061284e602683612dc8565b915061285982613168565b604082019050919050565b6000612871602283612dc8565b915061287c826131b7565b604082019050919050565b6000612894602683612dc8565b915061289f82613206565b604082019050919050565b60006128b7601483612dc8565b91506128c282613255565b602082019050919050565b60006128da602883612dc8565b91506128e58261327e565b604082019050919050565b60006128fd602083612dc8565b9150612908826132cd565b602082019050919050565b6000612920600c83612dd9565b915061292b826132f6565b600c82019050919050565b6000612943602583612dc8565b915061294e8261331f565b604082019050919050565b6000612966602483612dc8565b91506129718261336e565b604082019050919050565b6000612989601783612dc8565b9150612994826133bd565b602082019050919050565b60006129ac602583612dc8565b91506129b7826133e6565b604082019050919050565b60006129cf601f83612dc8565b91506129da82613435565b602082019050919050565b600060c0830160008301516129fd6000860182612a6e565b506020830151612a10602086018261265f565b506040830151612a236040860182612a6e565b506060830151612a366060860182612701565b5060808301518482036080860152612a4e8282612735565b91505060a0830151612a6360a0860182612a6e565b508091505092915050565b612a7781612f19565b82525050565b612a8681612f19565b82525050565b612a9581612f23565b82525050565b6000612aa8828587612710565b9150612ab382612913565b9150612abf82846127a7565b9150819050949350505050565b6000602082019050612ae1600083018461266e565b92915050565b6000604082019050612afc600083018561266e565b612b096020830184612a7d565b9392505050565b60006020820190508181036000830152612b2a818461267d565b905092915050565b6000602082019050612b4760008301846126f2565b92915050565b60006020820190508181036000830152612b67818461276e565b905092915050565b60006020820190508181036000830152612b88816127d8565b9050919050565b60006020820190508181036000830152612ba8816127fb565b9050919050565b60006040820190508181036000830152612bc88161281e565b9050612bd76020830184612a7d565b92915050565b60006020820190508181036000830152612bf681612841565b9050919050565b60006020820190508181036000830152612c1681612864565b9050919050565b60006020820190508181036000830152612c3681612887565b9050919050565b60006020820190508181036000830152612c56816128aa565b9050919050565b60006020820190508181036000830152612c76816128cd565b9050919050565b60006020820190508181036000830152612c96816128f0565b9050919050565b60006020820190508181036000830152612cb681612936565b9050919050565b60006020820190508181036000830152612cd681612959565b9050919050565b60006020820190508181036000830152612cf68161297c565b9050919050565b60006020820190508181036000830152612d168161299f565b9050919050565b60006020820190508181036000830152612d36816129c2565b9050919050565b6000602082019050612d526000830184612a7d565b92915050565b6000602082019050612d6d6000830184612a8c565b92915050565b6000819050602082019050919050565b600081519050919050565b600081519050919050565b6000602082019050919050565b600082825260208201905092915050565b600082825260208201905092915050565b600082825260208201905092915050565b600081905092915050565b6000612def82612f19565b9150612dfa83612f19565b9250827fffffffffffffffffffffffffffffffffffffffffffffffffffffffffffffffff03821115612e2f57612e2e613029565b5b828201905092915050565b6000612e4582612f19565b9150612e5083612f19565b9250817fffffffffffffffffffffffffffffffffffffffffffffffffffffffffffffffff0483118215151615612e8957612e88613029565b5b828202905092915050565b6000612e9f82612f19565b9150612eaa83612f19565b925082821015612ebd57612ebc613029565b5b828203905092915050565b6000612ed382612ef9565b9050919050565b60008115159050919050565b6000819050612ef48261345e565b919050565b600073ffffffffffffffffffffffffffffffffffffffff82169050919050565b6000819050919050565b600060ff82169050919050565b6000612f3b82612ee6565b9050919050565b82818337600083830152505050565b60005b83811015612f6f578082015181840152602081019050612f54565b83811115612f7e576000848401525b50505050565b6000612f8f82612f19565b91506000821415612fa357612fa2613029565b5b600182039050919050565b60006002820490506001821680612fc657607f821691505b60208210811415612fda57612fd9613087565b5b50919050565b6000612feb82612f19565b91507fffffffffffffffffffffffffffffffffffffffffffffffffffffffffffffffff82141561301e5761301d613029565b5b600182019050919050565b7f4e487b7100000000000000000000000000000000000000000000000000000000600052601160045260246000fd5b7f4e487b7100000000000000000000000000000000000000000000000000000000600052602160045260246000fd5b7f4e487b7100000000000000000000000000000000000000000000000000000000600052602260045260246000fd5b6000601f19601f8301169050919050565b7f537472696e67733a20686578206c656e67746820696e73756666696369656e74600082015250565b7f45524332303a207472616e7366657220746f20746865207a65726f206164647260008201527f6573730000000000000000000000000000000000000000000000000000000000602082015250565b7f5472616e73666572205375636365737366756c00000000000000000000000000600082015250565b7f4f776e61626c653a206e6577206f776e657220697320746865207a65726f206160008201527f6464726573730000000000000000000000000000000000000000000000000000602082015250565b7f45524332303a20617070726f766520746f20746865207a65726f20616464726560008201527f7373000000000000000000000000000000000000000000000000000000000000602082015250565b7f45524332303a207472616e7366657220616d6f756e742065786365656473206260008201527f616c616e63650000000000000000000000000000000000000000000000000000602082015250565b7f496e76616c6964207061796d656e742074797065000000000000000000000000600082015250565b7f45524332303a207472616e7366657220616d6f756e742065786365656473206160008201527f6c6c6f77616e6365000000000000000000000000000000000000000000000000602082015250565b7f4f776e61626c653a2063616c6c6572206973206e6f7420746865206f776e6572600082015250565b7f2075706461746564206279200000000000000000000000000000000000000000600082015250565b7f45524332303a207472616e736665722066726f6d20746865207a65726f20616460008201527f6472657373000000000000000000000000000000000000000000000000000000602082015250565b7f45524332303a20617070726f76652066726f6d20746865207a65726f2061646460008201527f7265737300000000000000000000000000000000000000000000000000000000602082015250565b7f4e6f6e206578697374696e67207061796d656e74204944000000000000000000600082015250565b7f45524332303a2064656372656173656420616c6c6f77616e63652062656c6f7760008201527f207a65726f000000000000000000000000000000000000000000000000000000602082015250565b7f45524332303a206d696e7420746f20746865207a65726f206164647265737300600082015250565b6005811061346f5761346e613058565b5b50565b61347b81612ec8565b811461348657600080fd5b50565b6005811061349657600080fd5b50565b6134a281612f19565b81146134ad57600080fd5b5056fea2646970667358221220a0e236ec39352184f0237dc49f1154008b0261fef902f791d32353da0609c3d564736f6c63430008040033",
  "immutableReferences": {},
  "source": "// SPDX-License-Identifier: UNLICENSED\r\npragma solidity ^0.8.0;\r\n\r\nimport \"@openzeppelin/contracts/access/Ownable.sol\";\r\nimport \"@openzeppelin/contracts/token/ERC20/ERC20.sol\";\r\nimport \"@openzeppelin/contracts/utils/Strings.sol\";\r\n\r\n\r\ncontract MambaCoin is Ownable, ERC20(\"MambaCoin\",\"MAMBA\") {\r\n    \r\n    mapping(address => uint256) public balances;\r\n    mapping(address => Payment[]) records;\r\n    \r\n    address administrator;\r\n    uint currentPaymentId=0;\r\n\r\n    struct Payment {\r\n        uint id;\r\n        address recipient;\r\n        uint amount;\r\n        PaymentType paymentType;\r\n        string comment;\r\n        uint timestamp;\r\n    }\r\n\r\n    struct Log {\r\n        address sender;\r\n        uint id;\r\n    }\r\n    mapping(uint => Log) public recordLog;\r\n\r\n    enum PaymentType {Unknown, BasicPayment, Refund, Dividend, GroupPayment}\r\n       \r\n    event supplyChanged(uint256);\r\n    event Transfer(string, address indexed, uint256);\r\n   \r\n   constructor () {\r\n        administrator = msg.sender;\r\n        _mint(owner(), 10000);\r\n        balances[owner()] = totalSupply();\r\n   }\r\n   \r\n   \r\n   function updateTotalSupply() external onlyOwner {\r\n        _mint(msg.sender, totalSupply());\r\n      emit supplyChanged(totalSupply());\r\n   }\r\n   \r\n    function transfer(address _to, uint _amount) public override returns (bool) {\r\n        _transfer(msg.sender, _to, _amount);\r\n\r\n      //record the payment...\r\n        Payment memory new_payment = Payment({ \r\n            amount: _amount,\r\n            recipient: _to,\r\n            timestamp: block.timestamp,\r\n            id: currentPaymentId,\r\n            paymentType: PaymentType.Unknown,\r\n            comment: \"\"\r\n        });\r\n\r\n        records[msg.sender].push(new_payment);\r\n        recordLog[currentPaymentId] = Log({sender: msg.sender, id: records[msg.sender].length-1});\r\n        currentPaymentId++;\r\n\r\n        emit Transfer('Transfer Successful', _to, _amount);\r\n\r\n        return true;\r\n   }\r\n     \r\n   function getRecords(address _user) external view returns (Payment[] memory) {\r\n       return records[_user];\r\n   }\r\n\r\n    /**\r\n     * @dev shows all payments made by the user\r\n     * @return the array for Payment elements\r\n     */\r\n    function ownRecords() external view returns (Payment[] memory) { \r\n        return records[msg.sender];\r\n    }\r\n\r\n    /**\r\n     * @dev updates details of a payment\r\n     * @param _id the id of the payment\r\n     * @param _type the type of payment\r\n     * @param _comment a comment\r\n     */\r\n    function updateDetails(uint _id, PaymentType _type, string calldata _comment) public {\r\n        require(_id < currentPaymentId, \"Non existing payment ID\");\r\n        require(uint(_type) < 5, \"Invalid payment type\");\r\n        if (msg.sender==administrator){\r\n            Log memory record = recordLog[_id];\r\n            //Payment storage payment = record[record.sender][] \r\n            records[record.sender][record.id].paymentType = _type;\r\n            records[record.sender][record.id].comment = string(abi.encodePacked(_comment, \" updated by \", Strings.toHexString(uint256(uint160(administrator)))));\r\n        }\r\n        else{\r\n            for (uint i=0; i<records[msg.sender].length; i++){\r\n                if (records[msg.sender][i].id == _id){\r\n                    records[msg.sender][i].paymentType = _type;\r\n                    records[msg.sender][i].comment = _comment;\r\n                    break;\r\n                }                \r\n            }\r\n        }\r\n        \r\n    }\r\n\r\n   \r\n}",
  "sourcePath": "C:\\Users\\bpoli\\blockchain_WORKSPACE\\truffle-intro\\contracts\\MambaCoin.sol",
  "compiler": {
    "name": "solc",
    "version": "0.8.4+commit.c7e474f2.Emscripten.clang"
  },
  "schemaVersion": "3.4.3",
  "updatedAt": "2021-09-22T12:58:38.044Z",
  "networkType": "ethereum",
  "devdoc": {
    "kind": "dev",
    "methods": {
      "allowance(address,address)": {
        "details": "See {IERC20-allowance}."
      },
      "approve(address,uint256)": {
        "details": "See {IERC20-approve}. Requirements: - `spender` cannot be the zero address."
      },
      "balanceOf(address)": {
        "details": "See {IERC20-balanceOf}."
      },
      "decimals()": {
        "details": "Returns the number of decimals used to get its user representation. For example, if `decimals` equals `2`, a balance of `505` tokens should be displayed to a user as `5.05` (`505 / 10 ** 2`). Tokens usually opt for a value of 18, imitating the relationship between Ether and Wei. This is the value {ERC20} uses, unless this function is overridden; NOTE: This information is only used for _display_ purposes: it in no way affects any of the arithmetic of the contract, including {IERC20-balanceOf} and {IERC20-transfer}."
      },
      "decreaseAllowance(address,uint256)": {
        "details": "Atomically decreases the allowance granted to `spender` by the caller. This is an alternative to {approve} that can be used as a mitigation for problems described in {IERC20-approve}. Emits an {Approval} event indicating the updated allowance. Requirements: - `spender` cannot be the zero address. - `spender` must have allowance for the caller of at least `subtractedValue`."
      },
      "increaseAllowance(address,uint256)": {
        "details": "Atomically increases the allowance granted to `spender` by the caller. This is an alternative to {approve} that can be used as a mitigation for problems described in {IERC20-approve}. Emits an {Approval} event indicating the updated allowance. Requirements: - `spender` cannot be the zero address."
      },
      "name()": {
        "details": "Returns the name of the token."
      },
      "ownRecords()": {
        "details": "shows all payments made by the user",
        "returns": {
          "_0": "the array for Payment elements"
        }
      },
      "owner()": {
        "details": "Returns the address of the current owner."
      },
      "renounceOwnership()": {
        "details": "Leaves the contract without owner. It will not be possible to call `onlyOwner` functions anymore. Can only be called by the current owner. NOTE: Renouncing ownership will leave the contract without an owner, thereby removing any functionality that is only available to the owner."
      },
      "symbol()": {
        "details": "Returns the symbol of the token, usually a shorter version of the name."
      },
      "totalSupply()": {
        "details": "See {IERC20-totalSupply}."
      },
      "transferFrom(address,address,uint256)": {
        "details": "See {IERC20-transferFrom}. Emits an {Approval} event indicating the updated allowance. This is not required by the EIP. See the note at the beginning of {ERC20}. Requirements: - `sender` and `recipient` cannot be the zero address. - `sender` must have a balance of at least `amount`. - the caller must have allowance for ``sender``'s tokens of at least `amount`."
      },
      "transferOwnership(address)": {
        "details": "Transfers ownership of the contract to a new account (`newOwner`). Can only be called by the current owner."
      },
      "updateDetails(uint256,uint8,string)": {
        "details": "updates details of a payment",
        "params": {
          "_comment": "a comment",
          "_id": "the id of the payment",
          "_type": "the type of payment"
        }
      }
    },
    "version": 1
  },
  "userdoc": {
    "kind": "user",
    "methods": {},
    "version": 1
  }
}